:100000000C9434000C944B000C9449000C9449005F
:100010000C9449000C9449000C9449000C9449003C
:100020000C9449000C9449000C9449000C9449002C
:100030000C9449000C9449000C9482000C944900E3
:100040000C9449000C9449000C9449000C9449000C
:100050000C9449000C9449000C9449000C944900FC
:100060000C9449000C94490011241FBECFEFD8E036
:10007000DEBFCDBF11E0A0E0B1E0E2EAF1E002C0F6
:1000800005900D92A230B107D9F70E948C000C9414
:10009000CF000C9400001F920F920FB60F92112404
:1000A0008F93F89488B18C6188B978948F910F9070
:1000B0000FBE0F901F9018951F920F920FB60F92C0
:1000C00011248F9380910101882351F080910101C7
:1000D00081508093010180910101823039F442986E
:1000E0008F910F900FBE0F901F9018958091010176
:1000F000813011F44398F4CF809101018111F0CF48
:100100004498EECF1F920F920FB60F9211240F90CA
:100110000FBE0F901F90189584B18E6384B9539AC7
:100120003D9A87B18C6187B95098589A8091800028
:10013000826880938000809181008A618093810031
:100140008FE19EE4909387008093860084B582605F
:1001500084BD85B5856085BD8EEF87BD80916900C2
:10016000826080936900E89A809168008260809341
:10017000680080916C00816080936C0080916E00BB
:10018000826080936E0078942D9A2B9A459A90E223
:1001900086B58E3FE8F38BB189278BB9F9CFF894F8
:0201A000FFCF8F
:0201A200010357
:00000001FF
