:100000000C9434000C944B000C9449000C9449005F
:100010000C9449000C9449000C9449000C9449003C
:100020000C9449000C9449000C9449000C9449002C
:100030000C9449000C9449000C9494000C944900D1
:100040000C9449000C9449000C9449000C9449000C
:100050000C9449000C9449000C9449000C944900FC
:100060000C9449000C94490011241FBECFEFD8E036
:10007000DEBFCDBF11E0A0E0B1E0EAEEF1E002C0EA
:1000800005900D92A230B107D9F70E94A6000C94FA
:10009000F3000C9400001F920F920FB60F921124E0
:1000A0008F93F89488B18C6188B978948F910F9070
:1000B0000FBE0F901F9018951F920F920FB60F92C0
:1000C00011242F938F939F93809100018823C1F077
:1000D0008091000181508093000180910001823065
:1000E000B9F44298109201012FEF83E294EF21506E
:1000F00080409040E1F700C0000081E08093010162
:100100009F918F912F910F900FBE0F901F90189578
:1001100080910001813011F44398E4CF8091000177
:100120008111E0CF4498DECF1F920F920FB60F924D
:1001300011248F939F938BB190E289278BB99F9164
:100140008F910F900FBE0F901F901895219A229AB1
:10015000239A249A259A539A3D9A87B18C6187B93C
:100160005098589A80918000826880938000809196
:1001700081008A61809381008FE19EE490938700E3
:100180008093860084B5826084BD85B5856085BD19
:100190008CE987BD80916900826080936900E89A4C
:1001A0008091680082608093680080916C0081601B
:1001B00080936C0080916E00826080936E007894D2
:1001C0002D9A2B9A459A8CED95E0209101012223DE
:1001D00029F09093890080938800F7CF10928900CE
:0A01E00010928800F2CFF894FFCFD0
:0201EA0003010F
:00000001FF
